:10002600554152542074657374A3ACBCBCCAF5C266
:10003600DBCCB3A3BA7777772E646F666C79652EBF
:100046006E657420C7EBD4DAB7A2CBCDC7F8CAE485
:0B005600C8EBC8CED2E2D0C5CFA2009C
:0E009D00759850438920758DFDD28ED2AF220A
:10008D0012009D7BFF7A00792612007AD2AC80FE99
:0800B7008F993099FDC29922D6
:10007A00120061FF600C1200B7740129F9E43AFA20
:03008A0080EE22E3
:03002300020003D5
:07000300C0D075D000C0075A
:10000A00309808C298AF998F908F99309902C29907
:05001A00D007D0D03238
:030000000200AB50
:0C00AB00787FE4F6D8FD75810702008D17
:10006100BB010689828A83E0225002E722BBFE029D
:09007100E32289828A83E49322D0
:00000001FF
