:100074003F065B4F666D7D077F6FFEFDFBF7EFDF8D
:02008400BF7F3C
:100003000512E51270020511B4F414E511B4010FE1
:10001300E4F511F5120510E510B46403E4F510E5F9
:100023001075F00A8490007493F508E51075F00AD2
:0F00330084E5F093F5097D027F0212004280C13F
:0A009200EF1F70011E144E70F722DC
:02004200AC0709
:10004400E4FBEBC39D5028E4F580D2A2C2A2EB2CC2
:1000540090007E93F580D2A3C2A374082BF8E6F532
:0F00640080D2A2C2A27FC87E001200920B80D36E
:01007300226A
:0300000002008675
:0C008600787FE4F6D8FD758112020003BB
:00000001FF
