:100215003F065B4F666D7D077F6FFEFDFBF7EFDFEA
:02022500BF7F99
:06000300011301010800D9
:03023300DFFE22C9
:10020000AE07AF061EEF600C7FF51202337FF512CA
:05021000023380EE2224
:10019700751402751500120227C290C291C292C24D
:1001A70093120143BF010BE513C3940550100513C8
:1001B700800CBF0209E513D3940140021513E51320
:0E01C70075F00A84E5F090021593F50C80D3D4
:1001D500E4F580D2A2C2A2E5082F90021F93F58014
:1001E500D2A3C2A3740B2508F8E6F580D2A2C2A259
:0A01F5000508E508B50503E4F50868
:0101FF0022DD
:0C022700438901D2AFD2A9D28CD2B922F7
:03000B0002000EE2
:10000E00C0E0C083C082C0D075D000C000C005C0A3
:01001E0007DA
:10001F00758CFC758A187D08E4FF1201D5E509651A
:10002F00137074F509E50AB40900506D900042F899
:10003F0028287302005D020063020069020071024A
:10004F00007902008502008D0200950200A1D29076
:10005F00C291800AD290D2918004C290D291C29262
:10006F00800EC290D291D2928006C290C291D2924B
:10007F00C293050A8023C290C291D292800EC29081
:10008F00C291C2928006D290C291C292D293050AB7
:09009F008007750A0080020509C2
:0F00A800D007D005D000D0D0D082D083D0E032A6
:10014300E5B0F4604C7F0A120200E5B0F46042AF00
:10015300B0E5B0B4FFFBEF2481603024C0602924F4
:10016300E0602224F0601B24F8601424FC600D245A
:10017300FE60061470187F01227F02227F03227F14
:1001830004227F05227F06227F07227F08227F0029
:03019300227F00C8
:010196002246
:030000000200B744
:0C00B700787FE4F6D8FD7581200200FE81
:1000C300020197E493A3F8E493A34003F68001F2BB
:1000D30008DFF48029E493A3F85407240CC8C3333E
:1000E300C4540F4420C8834004F456800146F6DF0D
:1000F300E4800B0102040810204080900003E47E9A
:10010300019360BCA3FF543F30E509541FFEE49301
:10011300A360010ECF54C025E060A840B8E493A3C8
:10012300FAE493A3F8E493A3C8C582C8CAC583CAF3
:10013300F0A3C8C582C8CAC583CADFE9DEE780BEAB
:0100090000F6
:00000001FF
