:1003D100C101C100010C00010800010900010A006E
:0303E100010B000D
:10032800C29775985053890F438920AB07AA06E4F2
:10033800F9F87F807E70FDFC120286EFF404F58DDB
:0A034800858D8BC2ABD2ACD28E22A1
:10035200EDD3950C4002AD0CE4FFEFC39D50127437
:10036200002FF8E212003F740129F9E43AFA0F80F3
:06037200E9E4F50CAF0503
:010378002262
:0B03E5000000000000000000DFF62216
:10037900D297AF051DEF6013C201120026F59974DB
:100389000129F9E43AFA2001E980FB7F051203E526
:03039900C29722E6
:1003B700300016C2007B007A0079217D1C1203529F
:0903C700AD077A007921120379D7
:0103D000220A
:1002FC00E50CD394004021E508650C6007850C08DB
:10030C00E4F50922E509C3941E5010EF2509F509FF
:0B031C00C3941E4006D20022E4F50846
:0103270022B3
:030023000202CA0C
:1002CA00C0E0C0D075D000C000C007309814C298F2
:1002DA00E50CC39428500BAF0C050C74002FF8E5FD
:1002EA0099F2309904C299D201D007D000D0D0D067
:0202FA00E032F0
:10000E00D2AF7F017E0012020D7F807E2512032863
:05001E001203B780FB96
:10020D0075240075231075220E752100E4FCFDABDD
:10021D0024AA23A922A821120051E47BE87A03F92C
:10022D00F81200DC8F248E238D228C21C3E49524BB
:10023D00F524E49523F52374019522F522E4952107
:10024D00F521E5242422F524E43523F523E4352294
:10025D00F522E43521F521AF24AE23AD22FC78083B
:10026D0012016E8F0A85240B5389F0438901850A8B
:08027D008C850B8AD2A9D28CFA
:010285002256
:03000B0002039C51
:10039C00C0E0C0D075D000C007850A8C850B8A7F61
:0B03AC00011202FCD007D0D0D0E032DC
:0300000002018179
:0C018100787FE4F6D8FD75813E0201C8CD
:10002600BB010689828A83E0225002E722BBFE02D8
:09003600E32289828A83E493220B
:10003F00BB010689828A83F0225002F722BBFE01A0
:02004F00F3229A
:10005100E88FF0A4CC8BF0A42CFCE98EF0A42CFC4E
:100061008AF0EDA42CFCEA8EF0A4CDA8F08BF0A4CC
:100071002DCC3825F0FDE98FF0A42CCD35F0FCEB2B
:100081008EF0A4FEA9F0EB8FF0A4CFC5F02ECD39F0
:0F009100FEE43CFCEAA42DCE35F0FDE43CFC225D
:1000A00075F008758200EF2FFFEE33FECD33CDCC17
:1000B00033CCC58233C5829BED9AEC99E58298409A
:1000C0000CF582EE9BFEED9AFDEC99FC0FD5F0D677
:1000D000E4CEFBE4CDFAE4CCF9A88222B800C1B9A1
:1000E0000059BA002DEC8BF084CFCECDFCE5F0CBDF
:1000F000F97818EF2FFFEE33FEED33FDEC33FCEB18
:1001000033FB10D703994004EB99FB0FD8E5E4F9D2
:10011000FA227818EF2FFFEE33FEED33FDEC33FCBF
:10012000C933C910D7059BE99A4007EC9BFCE99AB3
:10013000F90FD8E0E4C9FAE4CCFB2275F010EF2FF8
:10014000FFEE33FEED33FDCC33CCC833C810D707F8
:100150009BEC9AE899400AED9BFDEC9AFCE899F833
:0E0160000FD5F0DAE4CDFBE4CCFAE4C8F922C6
:10028600C2D5E830E70FB2D5E4C39BFBE49AFAE4A3
:1002960099F9E498F8EC30E717B2D51202BC1200CF
:1002A600DCE4C39BFBE49AFAE499F9E498F880034A
:1002B6001200DC30D50DE4C39FFFE49EFEE49DFDF5
:0402C600E49CFC2296
:10016E00E8600FECC313FCED13FDEE13FEEF13FF6F
:03017E00D8F12293
:10018D0002000EE493A3F8E493A34003F68001F27A
:10019D0008DFF48029E493A3F85407240CC8C33373
:1001AD00C4540F4420C8834004F456800146F6DF42
:1001BD00E4800B01020408102040809003D1E47EFE
:1001CD00019360BCA3FF543F30E509541FFEE49337
:1001DD00A360010ECF54C025E060A840B8E493A3FE
:1001ED00FAE493A3F8E493A3C8C582C8CAC583CA29
:1001FD00F0A3C8C582C8CAC583CADFE9DEE780BEE1
:0103E4000018
:00000001FF
