:0F022E00438901E4F58CF58AD2AFD2A9D28C2294
:1000DC008E0E8F0FAB07AA06E4C39BFFE49AFE7447
:1000EC00019400FDE49400FCE4FB7A01F9F81201A0
:1000FC00C18F08AE0EAF0FAB07AA06E4C39BFFE49B
:10010C009AFE74019400FDE49400FCE4FB7A01F97E
:10011C00F81201C1AF038F0AE50F24C8FFE50E34B6
:10012C00B5FEE433FDE433FCE4FB7A01F9F812018B
:10013C00C18F09E50F24C8FFE50E34B5FEE433FD8D
:10014C00E433FCE4FB7A01F9F81201C1AF038F0B25
:01015C002280
:10015D00750C05750DDCC20012022E8022200028C0
:10016D00C3E50D94FCE50C9408500D740A250DF5AE
:10017D000DE4350CF50C8002D2007F03120205AFA1
:10018D000DAE0C1200DC80D53000D2D3E50D94BC41
:10019D00E50C9402400E74F6250DF50D74FF350C2B
:1001AD00F50C8002C2007F03120205AF0DAE0C12DA
:0401BD0000DC80D40E
:03000B0002021AD4
:10021A0030800885098C850B8A800685088C850ABA
:04022A008AB28032E2
:03000300DFFE22FB
:10020500AE07AF061EEF600C7FF51200037FF512F7
:05021500000380EE2251
:0300000002023DBC
:0C023D00787FE4F6D8FD75812002015D99
:1001C100C2D5E830E70FB2D5E4C39BFBE49AFAE469
:1001D10099F9E498F8EC30E717B2D51201F712005B
:1001E1004AE4C39BFBE49AFAE499F9E498F88003A2
:1001F10012004A30D50DE4C39FFFE49EFEE49DFD4D
:04020100E49CFC225B
:10000E0075F008758200EF2FFFEE33FECD33CDCCA9
:10001E0033CCC58233C5829BED9AEC99E58298402C
:10002E000CF582EE9BFEED9AFDEC99FC0FD5F0D609
:10003E00E4CEFBE4CDFAE4CCF9A88222B800C1B933
:10004E000059BA002DEC8BF084CFCECDFCE5F0CB71
:10005E00F97818EF2FFFEE33FEED33FDEC33FCEBAA
:10006E0033FB10D703994004EB99FB0FD8E5E4F965
:10007E00FA227818EF2FFFEE33FEED33FDEC33FC52
:10008E00C933C910D7059BE99A4007EC9BFCE99A46
:10009E00F90FD8E0E4C9FAE4CCFB2275F010EF2F8B
:1000AE00FFEE33FEED33FDCC33CCC833C810D7078B
:1000BE009BEC9AE899400AED9BFDEC9AFCE899F8C6
:0E00CE000FD5F0DAE4CDFBE4CCFAE4C8F92259
:00000001FF
