:10009000D8F7BDF887F9E4F990FA29FBB1FBEFFB3B
:10000E00120003C292AFB0EF2481603E24C060356F
:10001E0024E0602C24F0602324F8601A24FC601184
:10002E0024FE6008147028750A018026750A028065
:10003E0021750A03801C750A048017750A05801243
:10004E00750A06800D750A078008750A088003E494
:10005E00F50AE50A7006C28CC29280A9E50A25E06F
:10006E00248FF582E43400F583E493F508E50A2540
:10007E00E0248EF582E43400F583E493F509D28C06
:02008E0080836D
:08000300438901D2AFD2A9220A
:03000B000200AC44
:0900AC0085088C85098AB29232A4
:030000000200A05B
:0C00A000787FE4F6D8FD75810A02000E9E
:00000001FF
