:0B0230003F065B4F666D7D077F6F404F
:10000300E4F5200520C3E520648094B2400BE4F5B9
:1000130020050BE50B7002050AAE0AAF0B7C277DAA
:10002300101201B17E037FE8CFCDCFCECCCE12012B
:10003300B174302FF58274023EF583E493750C009E
:10004300F50DAE0AAF0B7C037DE81201B17E007F94
:1000530064CFCDCFCECCCE1201B174302FF58274E4
:10006300023EF583E4934480FB7A008A0EF50FAEDB
:100073000AAF0B7C007D641201B17E007F0ACFCDF5
:10008300CFCECCCE1201B174302FF58274023EF57F
:1000930083E493751000F511AE0AAF0B7C007D0A63
:1000A3001201B174302DF58274023CF583E493752B
:1000B3001200F513AE0AAF0B7C277D101201B17E3F
:1000C300037FE8CFCDCFCECCCE1201B174302FF564
:1000D3008274023EF583E493751400F5158A168B3A
:1000E30017AE0AAF0B7C007D641201B17E007F0A5C
:1000F300CFCDCFCECCCE1201B174302FF5827402A6
:100103003EF583E493751800F519AE0AAF0B7C0036
:100113007D0A1201B174302DF58274023CF583E43B
:1001230093751A00F51BE4F508F509C3E50994086E
:10013300E50894004003020006E50925E0240CF8D5
:1001430008E6F580E5087054E509B40800504D90C1
:100153000159F828287302017102017502017D0219
:10016300018102018902018D020195020199C2A058
:100173008002D2A0C2A1C2A28022C2A08002D2A0C9
:10018300D2A1C2A28016C2A08002D2A0C2A1D2A2D2
:10019300800AC2A08002D2A0D2A1D2A27F967E0002
:0E01A3001202060509E5097002050802012E88
:10020600D3EF9400EE940040147DC8D3ED6480943F
:0D0216008040031D80F5EF1F70E61E80E3A1
:0102230022B8
:03000000020224D5
:0C022400787FE4F6D8FD7581200200030D
:1001B100BC000BBE0029EF8DF084FFADF022E4CC32
:1001C100F875F008EF2FFFEE33FEEC33FCEE9DECFB
:1001D100984005FCEE9DFE0FD5F0E9E4CEFD22ED41
:1001E100F8F5F0EE8420D21CFEADF075F008EF2F8B
:1001F100FFED33FD4007985006D5F0F222C398FD7C
:050201000FD5F0EA2218
:00000001FF
