:0B01A900010E00020C0000021100011A
:0901C000D290D291D292D2932286
:10000E00851108851209E50EB4080040030200DED2
:10001E00900025F828287302003D02005302006963
:10002E0002007C02008F0200A20200B50200C9E5A8
:10003E0010450F70030200DEC290D291D292D2937D
:10004E00750E018073E510450F70030200DEC2903D
:10005E00C291D292D293750E02805DE510450F606B
:10006E006FD290C291D292D293750E03804AE51050
:10007E00450F605CD290C291C292D293750E0480ED
:10008E0037E510450F6049D290D291C292D2937546
:10009E000E058024E510450F6036D290D291C292A3
:1000AE00C293750E068011E510450F6023D290D2D3
:1000BE0091D292C293750E07E48011E510450F6040
:1000CE000FC290D291D292C293E4F50EF50FF510B5
:0100DE0022FF
:0F019A00438911758CDCE4F58A75A88AD28C2212
:0B01B50012019A1201C012000E80FB24
:03000B0002016B84
:10016B00C0E0C0D075D000C006758CFE758A330513
:10017B000BE50BAE0A7002050A1464054E7009F507
:0F018B000F751001F50AF50BD006D0D0D0E03279
:030000000200DF1C
:0C00DF00787FE4F6D8FD7581120201263E
:1000EB000201B5E493A3F8E493A34003F68001F275
:1000FB0008DFF48029E493A3F85407240CC8C33316
:10010B00C4540F4420C8834004F456800146F6DFE4
:10011B00E4800B01020408102040809001A9E47ECA
:10012B00019360BCA3FF543F30E509541FFEE493D9
:10013B00A360010ECF54C025E060A840B8E493A3A0
:10014B00FAE493A3F8E493A3C8C582C8CAC583CACB
:10015B00F0A3C8C582C8CAC583CADFE9DEE780BE83
:0101B400004A
:00000001FF
