:100233003F065B4F666D7D077F6FFEFDFBF7EFDFCC
:02024300BF7F7B
:03000300010800F1
:10000E0012024512019FEF24FE601614601F146049
:10001E00282403702E0517E51764187026F517802F
:10002E00221517E517B4FF1B75171780160516E571
:10003E0016B43C0FE4F516800A1516E516B4FF0348
:10004E0075163B3000BDC200E51775F00A849002AC
:10005E003393F50EE51775F00A84E5F093F50F75F9
:10006E001040E51675F00A8493F511E51675F00A41
:10007E0084E5F093F512751340E50D75F00A84933F
:10008E00F514E50D75F00A84E5F093F515020011EF
:03000700DFFE22F7
:10021E00AE07AF061EEF600C7FF51200077FF512DA
:05022E00000780EE2234
:1001F300E4F580D2A2C2A2E5082F90023D93F580D8
:10020300D2A3C2A3740E2508F8E6F580D2A2C2A237
:0A0213000508E508B50503E4F50849
:01021D0022BE
:0A024500438901D2AFD2A9D28C2266
:03000B0002012AC5
:10012A00C0E0C083C082C0D075D000C000C005C086
:01013A0007BD
:10013B00758CF8758A307D08E4FF1201F3050CE528
:10014B000C7002050B640A450B7006F50BF50CD20F
:10015B0000050AE50A70020509B4F429E509B401A2
:10016B0024750900750A00050DE50DB43C17750DD6
:10017B00000516E516B43C0D7516000517E517B40A
:05018B001803751700C8
:0F019000D007D005D000D0D0D082D083D0E032BD
:10019F00E5B0F4604C7F0A12021EE5B0F46042AF86
:1001AF00B0E5B0B4FFFBEF2481603024C060292498
:1001BF00E0602224F0601B24F8601424FC600D24FE
:1001CF00FE60061470187F01227F02227F03227FB8
:1001DF0004227F05227F06227F07227F08227F00CD
:0301EF00227F006C
:0101F20022EA
:0300000002009E5D
:0C009E00787FE4F6D8FD7581200200E5B3
:1000AA0002000EE493A3F8E493A34003F68001F25E
:1000BA0008DFF48029E493A3F85407240CC8C33357
:1000CA00C4540F4420C8834004F456800146F6DF26
:1000DA00E4800B0102040810204080900003E47EB3
:1000EA00019360BCA3FF543F30E509541FFEE4931B
:1000FA00A360010ECF54C025E060A840B8E493A3E2
:10010A00FAE493A3F8E493A3C8C582C8CAC583CA0C
:10011A00F0A3C8C582C8CAC583CADFE9DEE780BEC4
:0100060000F9
:00000001FF
