:10104D004C696768743A20256325632563256325FC
:08105D006320202020200A007E
:1010BC000236000002320000043D00000000C109AD
:100BE600AC38AD39EC1201AE7B9A7A9979797840B6
:060BF6001200031201E7EA
:100BFC00AB07AA067C277D1012055AEF2430F53B73
:100C0C007C277D10AF03AE0212055AAA04AB057CFB
:100C1C00037DE8AF03AE0212055AEF2430F5347CA5
:100C2C00037DE8AF03AE0212055AAA04AB057C00A3
:100C3C007D64AF03AE0212055AEF2430F5357C000B
:100C4C007D64AF03AE0212055AAA04AB057C007D8D
:100C5C000AAF03AE0212055AEF2430F53A7C007D40
:0E0C6C000AAF03AE0212055AED2430F53C2209
:100F7C00E4FDFCC3ED9FEC9E5015E4FBFA0BBB00AB
:0F0F8C00010AEB64794A70F50DBD00010C80E499
:010F9B002233
:100F9C00E4FDFCC3ED9FEC9E5015E4FBFA0BBB008B
:0F0FAC00010AEB64794A70F50DBD00010C80E479
:010FBB002213
:101089000000000000000000000000000000000057
:011099002234
:0E10CD007F307E02EF1FAC0670011E4C70F6E5
:0110DB0022F2
:10109A00C2A5C2A48F80D2A3C2A37F017E00020F81
:0110AA007CC9
:1010AB00D2A5C2A48F80D2A3C2A37F017E00020F60
:0110BB007CB8
:100F59007F3012109A7F3012109A7F3812109A7FC0
:100F69000812109A7F0C12109A7F0112109A7F06AC
:030F790002109AC9
:100E53007B41E4FDFF120E8E7B44E4FD7F01120E05
:100E63008E7B58E4FD7F02120E8E7B4CE4FD7F03E4
:100E7300120E8E7B33E4FD7F04120E8E7B34E4FD71
:0B0E83007F05120E8E7B35E4FD7F061C
:100E8E00AE07A90353050153060FED600343064059
:0D0E9E00430680AF0612109AAF010210ABA0
:0F10DC00D294D293121089C294121089C2932217
:0C113000C294D293121089D2940210894C
:0E10FA00A2009294D293121089C29302108920
:0D111600D293121089A294C2931210892264
:10103400E4FEEF25E0FF9294D293121089C293123A
:0910440010890EBE08EC02111621
:100FBC00E4FFD294FEEF25E0FFD293121089A294A5
:0D0FCC00E4334207C2931210890EBE08E8FC
:010FD90022F5
:10106500AD071210DC7F46121034AF0512103402A2
:02107500113038
:100F09001210DC7F47121034E4FD120FBC74222D3D
:100F1900F8A607BD0304D2008002C2001210FA0D20
:090F2900BD03E71211300210CDE6
:051148007F01021065AB
:0F10EB00D2A0D2A1121089C2A0121089C2A122D4
:0C113C00C2A0D2A1121089D2A00210891A
:0E110800A20092A0D2A1121089C2A1021089E9
:0D112300D2A1121089A2A0C2A1121089222F
:050FDA001210EB7FA6E0
:100FDF00E4FEEF25E0FF92A0D2A1121089C2A11268
:090FEF0010890EBE08EC0211236A
:100FF800E4FFD2A0FEEF25E0FFD2A1121089A2A043
:0D100800E4334207C2A11210890EBE08E8B1
:0110150022B8
:10107700AC07120FDAAF04120FDFAF05120FDF0252
:02108700113C1A
:02101600AD0724
:10101800120FDAAF05120FDF1210EB7FA7120FDFE6
:0B102800120FF8D20012110812113C48
:01103300229A
:100EAB00120FDA7F32120FDF1210EB7FA7120FDF58
:100EBB00E4FD120FF8742A2DF8A607BD0504D20025
:100ECB008002C2001211080DBD06E712113C021080
:010EDB00CD49
:100EDC007D0B7F311210777D087F2C1210777F2DC0
:100EEC001210777D807F2E121077E4FD7F1E12107A
:0D0EFC00777F1F1210777D057F2002107791
:100D0600E52BFE7C00E4252AF539EC3EF538C36474
:100D1600809480500FC3E49539F539E49538F53859
:100D26007B2D80027B20E4FD7F0A120E8E120BE6DD
:100D36007B58E4FD7F08120E8E7B3AE4FD7F091294
:100D46000E8EAB34E4FD7F0B120E8E7B2EE4FD7F00
:100D56000C120E8EAB35E4FD7F0D120E8EAB3AE40F
:0F0D6600FD7F0E120E8E7B20E4FD7F0F020E8E9E
:100D7500E52DFE7C00E4252CF539EC3EF538C36401
:100D8500809480500FC3E49539F539E49538F538EA
:100D95007B2D80027B207D017F02120E8E120BE6D9
:100DA5007B597D01E4FF120E8E7B3A7D017F011296
:100DB5000E8EAB347D017F03120E8E7B2E7D017F5F
:100DC50004120E8EAB357D017F05120E8EAB3A7D7A
:0F0DD500017F06120E8E7B207D017F07020E8E9E
:100DE400E52FFE7C00E4252EF539EC3EF538C3648E
:100DF400809480500FC3E49539F539E49538F5387B
:100E04007B2D80027B207D017F0A120E8E120BE661
:100E14007B5A7D017F08120E8E7B3A7D017F091279
:100E24000E8EAB347D017F0B120E8E7B2E7D017FE7
:100E34000C120E8EAB357D017F0D120E8EAB3A7DFA
:0F0E4400017F0E120E8E7B207D017F0F020E8E1E
:100A62007FF47E01120F7C758921759850758DFD7A
:100A7200758BFDE4F58CF58AD28CD2A9D28ED299EF
:100A8200D2AF120F59121148120E537F0112106584
:100A92007F101210657FB47E00120F9C120F09AFF7
:100AA20022EF3395E0F5388F39E539FEAD23ED338A
:100AB20095E0FCE42DF539EE3CF538FCAD39120138
:100AC200AE7B9A7A997999783F12010C1201E7125A
:100AD2000BFC7BFF7A10794D853B44853445853587
:100AE20046853A47853C48120655120E53120EDCD3
:100AF200E4FF121016EF64E57003020BD07B4EE4A4
:100B0200FD7F08120E8E7B6FE4FD7F09120E8E7B35
:100B120020E4FD7F0A120E8E7B46E4FD7F0B120E4F
:100B22008E7B69E4FD7F0C120E8E7B6EE4FD7F0DE1
:100B3200120E8E7B64E4FD7F0E120E8E7B21E4FD8D
:100B42007F0F120E8E7B207D01E4FF120E8E7B2022
:100B52007D017F01120E8E7B207D017F02120E8E9F
:100B62007B207D017F03120E8E7B207D017F04128C
:100B72000E8E7B207D017F05120E8E7B207D017FF4
:100B820006120E8E7B207D017F07120E8E7B207D4A
:100B9200017F08120E8E7B207D017F09120E8E7B53
:100BA200207D017F0B120E8E7B207D017F0C120EA9
:100BB2008E7B207D017F0D120E8E7B207D017F0EAC
:100BC200120E8E7B207D017F0F120E8E800C120E74
:100BD200AB120D06120D75120DE47F5E7E01120F2F
:040BE2007C020A8DFA
:10000300EC4D6011E8497017ED33EC3304600DE4F7
:10001300FCFFFEFD22E933E8330470F802025312B9
:10002300021E58046009E4CC2481500628500902BA
:10003300025D28400302025AC0E0EB4A7044B980D3
:1000430006D0E0FB020249EF4E701CBD8008EBFFB7
:10005300EAFEE9FD80EBE98DF0A4FEE5F00200EC99
:10006300E9CDF9EAFEEBFFEF89F0A4FCE5F0CE89D8
:10007300F0A42EFFE435F0CD89F0A42DFEE435F095
:100083008067EF4E7005BD80D780C3EF8BF0A4ACC3
:10009300F0EE8BF0A42CFCE435F0F8EF8AF0A42CFE
:1000A300E5F038FCE433CB8DF0A42CFCE5F03BF811
:1000B300EE8AF0A42CFCE5F038F8E433CF89F0A401
:1000C3002CFCE5F038CF3400CE89F0A42FFFE5F007
:1000D3003EFEE433C98DF0A42EFEE5F039CD8AF05F
:1000E300A42FFFE5F03EFEE43DFD33D0E0FB5007D7
:1000F3000BBB000F02025DEC2CFCEF33FFEE33FE73
:06010300ED33FD020235A0
:1001090002025DEC5D046005E859047003020253C4
:1001190012021E580460F6EC4860F2EC7004FDFE11
:10012900FF22C860DB2481C85009C39860025006C9
:1001390002025A9850CAF582E9294B4A7005AB82E6
:1001490002024975F0007C1A7880C3EF9BEE9AEDA4
:1001590099400DC3EF9BFFEE9AFEED99FDE842F041
:10016900DC23ACF0D0E0FFD0E0FED0E0FDAB822094
:10017900E7101BEB60BAEC2CFCEF33FFEE33FEED1E
:1001890033FD020235E803F830E705C0F075F000E9
:10019900EF2FFFEE33FEED33FD40B830E7C280AA02
:1001A90075F020800E75F010800575F0087D007ED1
:1001B900007F003392D530D5031205AFEC334010E0
:1001C900EF33FFEE33FEED33FDEC33FCD5F0ED22DA
:0E01D900E5F0247EA2D513CC92E7CDCEFF2216
:1001E700EDD2E7CD33EC3392D524814006E4FFFE10
:1001F700FDFC22FCE4CFCECDCC24E0501174FF806F
:10020700EDC3CC13CCCD13CDCE13CECF13CF04700B
:07021700F030D5DE0205AF57
:1005F300E5582444F8E60558227841300702784448
:10060300E475F0011205BD0205022000EB7F2ED236
:10061300008018EF540F2490D43440D4FF30040BDF
:10062300EF24BFB41A0050032461FFE5596002159B
:1006330059055CE55C7002055B30070D7841E47594
:10064300F0011205BDEF020548020F327403D20711
:100653008003E4C207F5588B418A428943E4F55984
:10066300F55BF55CE55960077F2012062E80F57572
:100673005AFFC201C200C202C203C205C206C208B7
:100683001205FCFF700D3007057F0012063FAF5CBB
:10069300AE5B22B4255FC2D5C2041205FCFF24D091
:1006A300B40A00501A75F00A785930D50508B6FF18
:1006B3000106C6A426F620D5047002D20380D924ED
:1006C300CFB41A00EF5004C2E5D20402092CD201C0
:1006D30080C6D20080C0D20280BCD2D580BAD205F7
:1006E30080B47F2012062E2002077401B559004002
:1006F300F11205F3FF12062E020667D208D2068016
:10070300951205F3FB1205F3FA1205F3F94A4B7040
:100713000679237A0A7BFF20022EE559602A7E00A0
:100723008E8275830012051B60060EEE655A70F00B
:10073300C2D5EBC0E0EAC0E0E9C0E0EE12098CD01C
:10074300E0F9D0E0FAD0E0FB120502FF60AAEBC0AB
:10075300E0EAC0E0E9C0E012062ED0E02401F9D0BF
:10076300E03400FAD0E0FBE55A0460DCD55AD980C6
:1007730087D20280A212096F60F7E55A7001041252
:100783000268A95A600DE55A600914F55A120A164F
:10079300EF60F3EA30E702F404C3995077EAF425F3
:1007A3005A0430E701E404F55A800D12096F60C161
:1007B300EA055A255A120268EA7857F630E701E447
:1007C300255A04D55A042005011412098CE4C0E00B
:1007D300120A167857E6601320E70714F612061676
:1007E300802204F6D0E014C0E07F00120616E55A1A
:1007F300600712060D155A800B30050312060DD043
:10080300E0020667D0E00480C512096F60A0E55AD4
:10081300041202687857EAF6E55A200502600104DB
:05082300240412098C01
:1008280074FF04C0E0120A16120616E55A200502E3
:10083800600312060DD0E0B55AE87F45120620780D
:1008480057E67F2B30E7047F2DF404C0E012062E14
:10085800D0E075F00A84C0F0120617D0E01206172F
:10086800020667791080027908C206C2088008D299
:10087800D5790A8004790AC2D5E55A047002F55A76
:10088800E4FAFDFEFF1205F3FC7B082001131205B4
:10089800F3FD7B1030000A1205F3FE1205F3FF7B0F
:1008A80020EC3382D592D55013C3E43000069FFF65
:1008B800E49EFEE42001039DFDE49CFCE4CBF8C229
:1008C80001EC700CCFCECDCCE824F8F870F380178B
:1008D800C3EF33FFEE33FEED33FDEC33FCEB33FBBC
:1008E800994002FB0FD8E9EB300105F8D0E0C44885
:1008F800B201C0E00AEC4D4E4F78207B0070C2EA8E
:10090800B55A0040BCC0E012098ED0F0D0E02001FA
:1009180004C4C0E0C4B201C0F0120617D0F0D5F08C
:10092800EB0206671205CD070453086B5806D54C31
:1009380006D142086F4F08774408774906EA43080A
:100948007D5507AE46080C450778470A435006D937
:100958002D06DD2E07002B06E12306FE200A2C2A91
:10096800069948000006F8E55AB4FF03755A0612BE
:1009780005F3FC1205F3FD1205F3FE1205F3FF78EB
:1009880050020297790AA2D5200314300509B9103C
:10099800020404B9080104A2D5200602500104206B
:1009A80002689202B559005034C0E07F2030031924
:1009B8007F30A20272067205500F1209E5C202C208
:1009C80006C205C2087F30800F300503E9C0E01277
:1009D800062E300503D0E0F9D0E0B559CC30051724
:1009E8007F30B9100C12062E7F583004077F7880AC
:1009F80003B9080312062E3002057F2D02062E7F4A
:100A0800202008F87F2B2006F322920280CF7F0057
:100A1800B4070050052450F8E6FF22286E756C6C68
:100A28002900D2011205F33001F8C201785930D5F6
:100A38000108F60206992D504349581205F324037C
:100A4800B405004001E4900A3E9312061F743A125E
:0A0A5800061FD20375590402086B53
:10021E00E9D2E7C933E833F892D5EDD2E7CD33EC26
:07022E0033FC5002B2D5229F
:10023500EC30E7100FBF000C0EBE00080DBD00042A
:100245000BEB6014A2D5EB13FCED92E7FD2274FFD6
:10025500FCFDFEFF22E480F8A2D574FF13FC7D802F
:03026500E480EF43
:10026800F920E72824F950037907E4F42402FB185D
:10027800DBFDE624FB5014E9600DE4F618E604F60D
:0F028800B40A08E4F6D9F57401F60A22C2D522A9
:10029700ED33EC3392D5FA602AB4FF33EDC2E77B36
:1002A700FF60067A0279BCE4227A0279C520D50478
:1002B7007A0279C0224E614E002B494E46002D49E5
:1002C7004E4600E47A08F608DAFC7B00740722E859
:1002D700C0E0ECC0E0EDC0E0EEC0E0EFC0E0EA75E2
:1002E700F010A4CAABF075F04DA42BFBE435F0FC7D
:1002F700EA2410FAEB34C5FBEC34D9FCEDC2E7FF76
:1003070075F056A4F42411C5F0F434C58FF0A42A6F
:10031700E5F03BE43CF620E7141204C2D0E0FFD03E
:10032700E0FED0E0FDD0E0FC12010C8014F40412D2
:1003370004C2D0E0FFD0E0FED0E0FDD0E0FC120028
:1003470003D0E0F8E6FAEDD2E7CD33EC332482FBB5
:10035700E4C3CF33CFCE33CECD33CD33DBF37B07FF
:1003670075F00A846004F6081B0AE5F0F6088FF0BA
:10037700740AA4FFACF08EF0740AA42CFEACF05003
:10038700010C8DF0740AA42CFDE435F0F608DBDED1
:03039700740722C6
:10039A00020253E86480F8E933E83360110460F03C
:1003AA00ED33EC337009E8FCE9FDEAFEEBFF2204C9
:1003BA0060DED3EB9FEA9EE99DE8C2E78CF0C2F7C4
:1003CA0095F0400CE8CCF8E9CDF9EACEFAEBCFFB90
:1003DA0012021E85D0F05804700320D5B3E80470C9
:1003EA00075002B2D502025D92D5EC0460F7E4CC64
:1003FA00C0E0C398F8603B94186008400DD0E0FB59
:10040A00020235E4FBFAC9FC8028E830E406E4C9B4
:10041A00FBE4CAFCE830E305E4C9CACBFCE85407AC
:10042A006010F8C3E913F9EA13FAEB13FBEC13FCB7
:10043A00D8F130F52FC3E49CFCEF9BFFEE9AFEED5A
:10044A0099FDD0E0FBEF4E4D4C701222DB03020205
:10045A005AEC2CFCEF33FFEE33FEED33FDED30E7C3
:10046A00EB020235EF2BFFEE3AFEED39FDD0E0FB51
:10047A0050130BBB000302025DED13FDEE13FEEFFA
:08048A0013FFEC13FC02023524
:100492003F8000004120000042C80000447A000072
:1004A200461C400047C35000497424004B189680F4
:1004B2004CBEBC205A0E1BCA6753C21C749DC5AEEB
:1004C200FB60065407601C23231204F0EB543860CF
:1004D200091204DC1204EB120003ECF8EDF9EEFA57
:1004E200EFCB22EB1204EB80F1543803241C90046E
:1004F20092FE93FC0EEE93FD0EEE930ECE93FF2230
:03000000020C7A75
:0C0C7A00787FE4F6D8FD75815C020CC1A7
:10050200BB010689828A83E0225002E722BBFE02F7
:09051200E32289828A83E493222A
:10051B00BB010CE58229F582E5833AF583E0225095
:10052B0006E92582F8E622BBFE06E92582F8E222DF
:0D053B00E58229F582E5833AF583E49322F9
:10054800BB010689828A83F0225002F722BBFE0192
:02055800F3228C
:10055A00BC000BBE0029EF8DF084FFADF022E4CC85
:10056A00F875F008EF2FFFEE33FEEC33FCEE9DEC4E
:10057A00984005FCEE9DFE0FD5F0E9E4CEFD22ED94
:10058A00F8F5F0EE8420D21CFEADF075F008EF2FDE
:10059A00FFED33FD4007985006D5F0F222C398FDCF
:0505AA000FD5F0EA226C
:0E05AF00C3E49FFFE49EFEE49DFDE49CFC225D
:1005BD00FAE6FB0808E6F925F0F618E6CA3AF6223F
:1005CD00D083D082F8E4937012740193700DA3A3BD
:1005DD0093F8740193F5828883E4737402936860D1
:0605ED00EFA3A3A380DFD1
:100F3200EFB40A07740D120F3D740A309811A89984
:100F4200B8130CC2983098FDA899C298B811F6301F
:070F520099FDC299F59922F7
:100C8600020A62E493A3F8E493A34003F68001F218
:100C960008DFF48029E493A3F85407240CC8C3336F
:100CA600C4540F4420C8834004F456800146F6DF3E
:100CB600E4800B01020408102040809010BCE47E02
:100CC600019360BCA3FF543F30E509541FFEE49333
:100CD600A360010ECF54C025E060A840B8E493A3FA
:100CE600FAE493A3F8E493A3C8C582C8CAC583CA25
:100CF600F0A3C8C582C8CAC583CADFE9DEE780BEDD
:0110CC000023
:00000001FF
