:1001B8003F065B4F666D7D077F6FFEFDFBF7EFDF48
:0201C800BF7FF7
:03000300010800F1
:10000E00E4F511D2B3D2B41201CA20B3377F0A126B
:10001E00014B20B32F20B32005127F0A12014BE5AE
:10002E0012B4C8F1E4F51220B3EBE511C39463509A
:10003E0002051112013280EFE4F512E511C394634B
:10004E005002051120B4377F0A12014B20B42F2025
:10005E00B42005127F0A12014BE512B4C8F1E4F583
:10006E001220B4EBE511D3940040021511120132A7
:10007E0080EFE4F512E511D3940040021511E5115D
:10008E0075F00A849001B893F509E51175F00A84AC
:08009E00E5F093F50A020018D9
:03000700DFFE22F7
:10013200E51175F00A849001B893F509E51175F09F
:090142000A84E5F093F50A7F320E
:10014B00AE07AF061EEF600C7FF51200077FF512AE
:05015B00000780EE2208
:10018D00E4F580D2A2C2A2E5082F9001C293F580BA
:10019D00D2A3C2A374092508F8E6F580D2A2C2A2A3
:0A01AD000508E508B50503E4F508B0
:0101B7002225
:0A01CA00438901D2AFD2A9D28C22E2
:03000B000201608F
:10016000C0E0C083C082C0D075D000C000C005C050
:1001700007758CF8758A307D08E4FF12018DD00771
:0D018000D005D000D0D0D082D083D0E032A6
:030000000200A655
:0C00A600787FE4F6D8FD7581120200EDB1
:1000B20002000EE493A3F8E493A34003F68001F256
:1000C20008DFF48029E493A3F85407240CC8C3334F
:1000D200C4540F4420C8834004F456800146F6DF1E
:1000E200E4800B0102040810204080900003E47EAB
:1000F200019360BCA3FF543F30E509541FFEE49313
:10010200A360010ECF54C025E060A840B8E493A3D9
:10011200FAE493A3F8E493A3C8C582C8CAC583CA04
:10012200F0A3C8C582C8CAC583CADFE9DEE780BEBC
:0100060000F9
:00000001FF
