:100304007580FFC2A4D2A5C2A600D2A6E58033227E
:1002DC008F3C7F051202C7C2A4C2A5D2A6853C8062
:0402EC0000C2A62284
:1002F0008F3C7F051202C7D2A4C2A5D2A6853C803E
:0403000000C2A6226F
:0A0320007F011202DC7F050202C714
:100280008F358D368B378A388939AB37AA38A939FB
:100290001201CCFB6016AD36AF351202AD740125EC
:0D02A00039F539E43538F538053580DE22B2
:1002AD008F3A8B3BED7006E53A24808004E53A24C5
:0A02BD00C0FF1202DCAF3B0202F0AA
:10020B007F381202DC7F051202C77F381202DC7FB7
:10021B00051202C77F381202DC7F051202C77F3836
:10022B001202DC7F081202DC7F011202DC7F061255
:0C023B0002DC7F051202C77F0C0202DC0F
:03032A00DFFE22D1
:1002C700AE07AF061EEF600C7FF512032A7FF5120B
:0502D700032A80EE2265
:1002470075B00FE5B0540FF535640F60297F0A12BA
:1002570002C7E5B0540F640F601CE5B0540FF535C5
:1002670044F0F5B0E5B054F0FFE5B054F0FEBEF051
:08027700F8E5352FFF227FFF9F
:01027F00225C
:1000FC00120247EF1201E5014077013D7B013A7D89
:10010C0001377E014CB70149BB0146BD0143BE011D
:10011C0058D70155DB0152DD014FDE0164E7016167
:10012C00EB015EED015BEE000001677F00227F01B9
:10013C00227F02227F03227F04227F05227F062258
:10014C007F07227F08227F09227F0A227F0B227FD2
:0E015C000C227F0D227F0E227F0F227FFF22BA
:10016A00202057656C636F6D65212000496E70759C
:10017A00742070617373776F7264210020202020CD
:10018A0020202020202020202020202000526967C3
:10019A006874204F70656E213E3E3E3E0057726F76
:1001AA006E6721205265747279210057726F6E67EB
:1001BA0020332074696D657321000102030405066A
:0201CA00070824
:1000030075340812020B7F0A1202C71203207BFF0A
:100013007A01796AE4FDFF1202807BFF7A01797627
:100023007D01E4FF1202801200FC8F21E521F460C0
:10003300F6E522700C7BFF7A0179867D01FF1202BF
:1000430080E522C39410501074232522F8A6217B47
:100053002A7D01AF221202AD0522E521640F60055E
:10006300E522B410C2E52214FFE4F522EF653470F3
:1000730023D200FFEFC39534501A300011EF9001E3
:10008300C493FE74232FF8E6B50603D38001C3920D
:10009300000F80E03000227BFF7A0179867D01E446
:1000A300FF1202807BFF7A0179977D01E4FF120240
:1000B30080E4F533C20002002A7BFF7A0179867D52
:1000C30001E4FF1202807BFF7A0179A77D01E4FF3F
:1000D3001202800533E5336403600302002A7BFFC9
:1000E3007A0179867D01FF1202807BFF7A0179B55F
:0900F3007D01E4FF12028080FE91
:03000000020314E4
:0C031400787FE4F6D8FD75813C02000300
:1001CC00BB010689828A83E0225002E722BBFE0231
:0901DC00E32289828A83E4932264
:1001E500D083D082F8E4937012740193700DA3A3A9
:1001F50093F8740193F5828883E4737402936860BD
:06020500EFA3A3A380DFBC
:00000001FF
