:100105000000000000000000081C3E7F1C1C1C1C99
:080115000000000000000000E2
:0A01450008080102040810204080A1
:03015800DFFE22A5
:10011D00AE07AF061EEF600C7FF51201587FF5128A
:05012D00015880EE22E4
:10013200E4FEC291EF339292EF25E0FFD2910EBE20
:0201420008F0C3
:010144002298
:08015000120132AF0502013279
:1000C700F8E6FF1200EDEC2A90010593F4FF7DFF9F
:1000D7001201501200E77F0112011D7FFF1201502C
:0600E700D29000C290223D
:1000ED00E4FEC2A1EF3392A0EF25E0FFD2A10EBE38
:0700FD0008F0D2A200C2A22C
:0101040022D8
:10008F00E4FAE4FBE4FCC374079C24081200C70CD9
:10009F00BC08F30BBB0AED0ABA10E7E4FAEAC39403
:1000AF001050DDE4FBE4FC74082C1200C70CBC08F4
:0800BF00F60BBB0AF00A80E514
:03000000020003F8
:0C000300787FE4F6D8FD75810F02004AFA
:10000F0002008FE493A3F8E493A34003F68001F278
:10001F0008DFF48029E493A3F85407240CC8C333F2
:10002F00C4540F4420C8834004F456800146F6DFC1
:10003F00E4800B0102040810204080900145E47E0B
:10004F00019360BCA3FF543F30E509541FFEE493B6
:10005F00A360010ECF54C025E060A840B8E493A37D
:10006F00FAE493A3F8E493A3C8C582C8CAC583CAA8
:10007F00F0A3C8C582C8CAC583CADFE9DEE780BE60
:01014F0000AF
:00000001FF
