:10000E0006020305020103020205020201030206B3
:10001E0002010502010602040302020502010602A4
:10002E00010502020302020102010601010502019D
:10003E000302010202040202030302010502020589
:10004E00020106020103020202020201020405027B
:10005E000303020102020101020106010101020174
:10006E00050106000000F2F3F5F5F6F7F8F9F9FAD6
:10007E00FAFBFBFCFCFCFDFDFDFDFEFEFEFEFEFEA6
:10008E00FEFF42C117B6D0D1B621E18CD868E95B2C
:0E009E008FEE446BB4F42D4777A2B6DAFA1653
:03000300DFFE22FB
:1000E900AE07AF061EEF600C7FF51200037FF51215
:0500F900000380EE226F
:0200FE00AD074C
:10010000E4FCECC39D50087FFA1200E90C80F3C2B6
:010110008C62
:0101110022CB
:03000B00020112DD
:0D011200C28CB29285098C850A8AD28C328B
:0D011F0085098C850A8AD28CAF080200FE8B
:1000AC00438901D2AFD2A9E4FBEBC3946450F8EBC3
:1000BC0090000F9375F007A4FFEB90000E932F1494
:1000CC00FA90007493F509EA90009093F50AEB907E
:0D00DC00001093F5080B0B0B12011F80CCD8
:0300000002012CCE
:0C012C00787FE4F6D8FD75810A0200AC73
:00000001FF
