:1000A5003F065B4F666D7D077F6FFEFDFBF7EFDF5C
:0200B500BF7F0B
:100003000517E51770020516641445167059F516A1
:10001300F517E515451470097F0A7808E4F608DF3B
:10002300FCE5159000A593FFAE1374092EF8A607FF
:1000330074082EF8E4F6C374089515FFE49514FECE
:10004300EFB5131BEEB51217E4F512F5130515E51D
:100053001570020514640845147004F514F51505AC
:1000630013E513700205127D08E4FF1200738090FC
:0A00C300EF1F70011E144E70F722AB
:02007300AC07D8
:10007500E4FBEBC39D5028E4F580D2A2C2A2EB2C91
:100085009000AF93F580D2A3C2A3740A2BF8E6F5CE
:0F00950080D2A2C2A27FC87E001200C30B80D30C
:0100A4002239
:030000000200B744
:0C00B700787FE4F6D8FD75811702000385
:00000001FF
