:1000AA00D2A100D2A00000000000C2A100000000FE
:0600BA0000C2A0000022BC
:1000C000C2A100D2A00000000000D2A100000000E8
:0100D000220D
:10000300E4FEEFA806088002C333D8FC30E704D22D
:10001300A18002C2A100D2A00000000000C2A00E75
:10002300BE08DF0000D2A10000D2A000000030A172
:0B00330004C2008002D200C2A0000046
:01003E00229F
:10009000000A141E28323C46505A646E78828C96B0
:0A00A000A0AAB4BEC8D2DCE6F0FA54
:10007600E4F508E50890009093FF7D0112003F0526
:0A00860008E508C3941A40EB80E679
:04003F008F098D0A8E
:100043001200AA7F90120003200002C3227F4012F5
:100053000003200002C322E4F50BE50BC3950A500D
:100063000EAF09120003200002C322050B80EB121E
:0200730000C0CB
:010075002268
:030000000200D12A
:0C00D100787FE4F6D8FD758120020076EF
:00000001FF
