:0A0BCF00C2A4D2A38F807F017E0034
:0C0BD900EF4E6007EF1F70F81E80F52241
:0E0C2600C2A5120BCFC2A37F647E00020BD9C1
:0E0C3400D2A5120BCFC2A37F647E00020BD9A3
:100B9900AE07AC0353050153060FED60034306404E
:0D0BA900430680AF06120C26AF04020C3488
:100A8C00AB07AA067C277D1012095FEF2430F50D09
:100A9C007C277D10AF03AE0212095FAA04AB057C64
:100AAC00037DE8AF03AE0212095FEF2430F5087C3A
:100ABC00037DE8AF03AE0212095FAA04AB057C000C
:100ACC007D64AF03AE0212095FEF2430F5097C00A0
:100ADC007D64AF03AE0212095FAA04AB057C007DF6
:100AEC000AAF03AE0212095FEF2430F50C7C007DD7
:0E0AFC000AAF03AE0212095FED2430F50E22A0
:100B5B00E4FDFCC3ED9FEC9E5015E4FBFA0BBB00D0
:0F0B6B00010AEB64794A70F50DBD00010C80E4BE
:010B7A002258
:100BF70000000000000000000000000000000000EE
:010C070022CA
:0E0C08007F307E02EF1FAC0670011E4C70F6AE
:010C160022BB
:0F0C1700D291D290120BF7C291120BF7C290221A
:0C0C5D00C291D290120BF7D291020BF75B
:0E0C4200A2009291D290120BF7C290020BF713
:0D0C5000D290120BF7A291C290120BF72266
:100BB600E4FEEF25E0FF9291D290120BF7C290125D
:090BC6000BF70EBE08EC020C5006
:100B7B00E4FFD291FEEF25E0FFD290120BF7A2918A
:0D0B8B00E4334207C290120BF70EBE08E8DB
:010B9800223A
:100BE500AD07120C177F46120BB6AF05120BB602F6
:020BF5000C5D95
:100B0A00120C177F47120BB6E4FD120B7B740F2DE4
:100B1A00F8A607BD0304D2008002C200120C420DDF
:090B2A00BD03E7120C5D020C088A
:050C75007F01020BE508
:100B33007F30120C267F30120C267F30120C267F5A
:100B430038120C267F08120C267F0C120C267F010C
:080B5300120C267F06020C269D
:1009C2007F647E00120B5B120B33120C757F0112D7
:1009D2000BE57F10120BE57FB47E00120B5B120B4E
:1009E2000A750A00850F0BE50BFE7C00E42510F565
:1009F2000BEC3EF50AFCAD0B1208A57B9A7A9979AD
:100A020099783F1208038F1A8E198D188C171208C5
:100A1200DE120A8C7B4CE4FDFF120B997B69E4FD2C
:100A22007F01120B997B67E4FD7F02120B990BE4A5
:100A3200FD7F03120B997B74E4FD7F04120B997BFB
:100A42003AE4FD7F05120B99AB0DE4FD7F07120B13
:100A520099AB08E4FD7F08120B99AB09E4FD7F090D
:100A6200120B99AB0CE4FD7F0A120B99AB0EE4FD5D
:100A72007F0B120B997B4CE4FD7F0D120B997B5877
:0A0A8200E4FD7F0E120B990209CF6C
:10080000020954EC5D046005E85904700302094ACA
:10081000120915580460F6EC4860F2EC7004FDFE15
:10082000FF22C860DB2481C85009C39860025006CB
:100830000209519850CAF582E9294B4A7005AB82EA
:1008400002094075F0007C1A7880C3EF9BEE9AEDA8
:1008500099400DC3EF9BFFEE9AFEED99FDE842F043
:10086000DC23ACF0D0E0FFD0E0FED0E0FDAB822096
:10087000E7101BEB60BAEC2CFCEF33FFEE33FEED20
:1008800033FD02092CE803F830E705C0F075F000ED
:10089000EF2FFFEE33FEED33FD40B830E7C280AA04
:1008A00075F020800E75F010800575F0087D007ED3
:1008B000007F003392D530D5031209B4EC334010D9
:1008C000EF33FFEE33FEED33FDEC33FCD5F0ED22DC
:0E08D000E5F0247EA2D513CC92E7CDCEFF2218
:1008DE00EDD2E7CD33EC3392D524814006E4FFFE12
:1008EE00FDFC22FCE4CFCECDCC24E0501174FF8071
:1008FE00EDC3CC13CCCD13CDCE13CECF13CF04700E
:07090E00F030D5DE0209B450
:10091500E9D2E7C933E833F892D5EDD2E7CD33EC28
:0709250033FC5002B2D522A1
:10092C00EC30E7100FBF000C0EBE00080DBD00042C
:10093C000BEB6014A2D5EB13FCED92E7FD2274FFD8
:10094C00FCFDFEFF22E480F8A2D574FF13FC7D8031
:03095C00E480EF45
:03000000020C6986
:0C0C6900787FE4F6D8FD7581200209C2F6
:10095F00BC000BBE0029EF8DF084FFADF022E4CC7C
:10096F00F875F008EF2FFFEE33FEEC33FCEE9DEC45
:10097F00984005FCEE9DFE0FD5F0E9E4CEFD22ED8B
:10098F00F8F5F0EE8420D21CFEADF075F008EF2FD5
:10099F00FFED33FD4007985006D5F0F222C398FDC6
:0509AF000FD5F0EA2263
:0E09B400C3E49FFFE49EFEE49DFDE49CFC2254
:00000001FF
