:1001EB003F065B4F666D7D077F6F20205265642055
:1001FB00436F6E74726F6C202000202049522D4388
:0A020B004F44453A2D2D48202000F5
:10028500E4FFFEE4FDFC0DBD00010CED64034C70C4
:0C029500F50FBF00010EEF640B4E70E788
:0102A100223A
:0402DA007F0D7E0016
:1002DE00E4FDFCC3ED9FEC9E50070DBD00010C80AC
:0102EE00F21D
:0102EF0022EC
:1002F000E4FDEDC39FE49E500CE4FC0CECD394941D
:0503000040F90D80ED45
:0103050022D5
:1002A200C2B57F1D7E001202DED2B57F031202DECE
:0C02B200A2B5E433FB7F191202DEAF039B
:0102BE00221D
:0F034300C2B5D2B5E4FF0FBF03FCA2B5E433FF90
:010352002288
:10033200C2B5BF0102D2B57F057E001202DED2B580
:010342002298
:10023D007901E4FBFA120343EF600CE9A802088090
:10024D0002C333D8FC2BFB7F067E001202DE0ABAF6
:04025D0008E3AF0300
:01026100227A
:02026200A907EA
:10026400E4FBE9A803088002C313D8FCFA53020193
:10027400AF021203327F057E001202DE0BBB08E2DE
:010284002257
:10030600C2A5C2A4D2A38F807F017E001202DEC2E4
:06031600A37F640202DE79
:10031C00D2A5C2A4D2A38F807F017E001202DEC2BE
:06032C00A37F640202DE63
:1002BF00AE0753050153060FED6003430640430697
:0B02CF0080AF06120306AF0302031C01
:100215007F301203067F301203067F301203067FFC
:10022500381203067F081203067F0C1203067F01AE
:080235001203067F0602030616
:1000D900E4F5A0D2B27F0AFE1202DE120215E4FB99
:1000E900EB9001F593FF600612031C0B80F27FC0B1
:1000F900120306E4FBEB90020593FF600612031C52
:100109000B80F275A8817588011202A27FCC1202B8
:10011900627F441202621202A27FCC1202627FBE87
:1001290012026212023D8F0912023D8F08E509C4CD
:10013900540FFD7C00EF75F010A42DFFEC35F0ABEA
:1001490007FA7D0AFE1201967C007D0A1201967457
:10015900EB2DF58274013CF583E493F58075A006D7
:100169007F057E001202F07C007D0AAF03AE021209
:10017900019674EB2DF58274013CF583E493F580C7
:0D01890075A0077F057E001202F002011232
:03000300020006F2
:07000600C0E0C0D075D0007E
:10000D00751300C2A87FC87E001202DE30B205D281
:10001D00A80200D420B2051202DA80F8751100751D
:10002D00120030B2051202DA80F820B2051202DA9F
:10003D0080F830B2111202DA0513E513C3941E4095
:10004D00F1D2A80200D4740A2511F8C000E6FFC34E
:10005D0013D000F6E513C394084009740A2511F86E
:10006D00E64480F67513000512E512C3940840B2FC
:10007D000511E511C3940440A6E50DF4650C60046B
:10008D00D2A88043E50C540FF50FE50CC4540FF5C1
:10009D0010E50FD394094004743780027430250F96
:1000AD00F50FE510D39409400474378002743025A0
:1000BD0010F510AB107D017F0A1202BFAB0F7D0151
:0700CD007F0B1202BFD2A855
:0500D400D0D0D0E032A5
:03000000020353A5
:0C035300787FE4F6D8FD7581130200D914
:10019600BC000BBE0029EF8DF084FFADF022E4CC4D
:1001A600F875F008EF2FFFEE33FEEC33FCEE9DEC16
:1001B600984005FCEE9DFE0FD5F0E9E4CEFD22ED5C
:1001C600F8F5F0EE8420D21CFEADF075F008EF2FA6
:1001D600FFED33FD4007985006D5F0F222C398FD97
:0501E6000FD5F0EA2234
:00000001FF
