:1001FF007580FFC2A4D2A5C2A600D2A6E580332285
:1001D7008F0C7F051201C2C2A4C2A5D2A6850C80CE
:0401E70000C2A6228A
:1001EB008F0C7F051201C2D2A4C2A5D2A6850C80AA
:0401FB0000C2A62276
:0A0228007F011201D77F050201C219
:10011D008F088B098A0A890BED7006E5082480800B
:10012D0004E50824C0FF1201D7AB09AA0AA90B12D6
:10013D0001A9FF60101201EB7401250BF50BE435DD
:06014D000AF50A80E4221D
:1000A7007F381201D77F051201C27F381201D77F2F
:1000B700051201C27F381201D77F051201C27F38AE
:1000C7001201D77F081201D77F011201D77F0612CD
:0C00D70001D77F051201C27F0C0201D787
:03000600DFFE22F8
:1001C200AE07AF061EEF600C7FF51200067FF51238
:0501D200000680EE2292
:100184007777772E646F666C79652E6E657400439D
:100194006F64653A0030313233343536373839419B
:0501A400424344454602
:03000B00020239B5
:0302390005223269
:0300030002006692
:09006600C0E0C0D075D000C0005C
:10006F00300029E522C3943F500AE522C394214072
:10007F000375210074372521F8A62275220005216A
:10008F00E521B4210CD2017521008005752200D223
:01009F000060
:0700A000D000D0D0D0E03207
:0D020F00758902E4F58CF58AD2A9D28C2203
:07023200D288D2A8D2AF224E
:10000E00E533C4540F90019993F523E533540F93C0
:10001E00F52475252DE534C4540F93F526E5345497
:10002E000F93F52775282DE535C4540F93F529E563
:10003E0035540F93F52A752B2DE536C4540F93F5D1
:10004E002CE536540F93F52D7B007A0079237D0134
:08005E007F0512011DC2022200
:100153007E01E4FD7C0174372EF8E6D39407400357
:10016300430780ECC394085004EFC313FF0E0CBC89
:1001730009E474332DF8A607E4FF0DBD04D6D202BB
:010183002259
:1000E30012023212020F1200A77F141201C212026F
:1000F300287BFF7A017984E4FDFF12011D7BFF7ADF
:100103000179937D01E4FF12011D300105120153B2
:0A011300C2013002F512000E80F068
:0300000002021CDD
:0C021C00787FE4F6D8FD7581570200E3FE
:1001A900BB010689828A83E0225002E722BBFE0254
:0901B900E32289828A83E4932287
:00000001FF
